:020000040000FA
:10000000008000104D04000055040000570400005B
:10001000590400005B0400005D04000000000000C3
:100020000000000000000000000000005F0400006D
:10003000610400000000000063040000650400008B
:100040006704000067040000670400006704000004
:1000500067040000670400006704000067040000F4
:1000600067040000670400006704000067040000E4
:1000700067040000670400006704000067040000D4
:1000800067040000670400006704000067040000C4
:1000900067040000670400006704000067040000B4
:1000A00067040000670400006704000067040000A4
:1000B0006704000067040000670400006704000094
:1000C00067040000000000000000000000000000C5
:1000D0000000000000000000000000000000000020
:1000E0000000000000000000000000000000000010
:1000F0000000000000000000000000000000000000
:1001000000000000000000000000000000000000EF
:1002F000000000000000000000000000FFFFFFFF02
:1003000000F002F800F094F80AA090E8000C824493
:100310008344AAF10107DA4501D100F089F8AFF270
:10032000090EBAE80F0013F0010F18BFFB1A43F0D3
:1003300001031847306F0000506F0000103A24BFCF
:1003400078C878C1FAD8520724BF30C830C144BF3A
:1003500004680C607047000000230024002500267C
:10036000103A28BF78C1FBD8520728BF30C148BF18
:100370000B6070476E2900F0BF84702901F02B805C
:10038000662906F0BC83652906F0B983672906F063
:10039000B683612906F0B58303681B0A28BF41F0C4
:1003A0008001692900F0E480642900F0E18075296A
:1003B00000F0DE806F2900F0B887782900F0F78719
:1003C000E92900F05387E42900F05087F52900F06F
:1003D0004D87EF2900F0B587F82900F0F68703680C
:1003E000DB0928BF41F08001632901F009847329EA
:1003F00001F00E84E32901F01984F32901F01E8431
:10040000002070471FB59DE8030000F079FB01F064
:10041000CBF904000020002105F08EFA401C60603A
:100420000020002105F072FAE06001F0FBF81FBD2A
:1004300003F085FB114603B403F094FB03BCFFF704
:10044000E1FF02F012FA03F0C7FE00000648804701
:1004500006480047FEE7FEE7FEE7FEE7FEE7FEE7A9
:10046000FEE7FEE7FEE7FEE7792800000103000053
:10047000004870477003001070B5064600F024FB7A
:10048000056806F10B0020F00704B4429CBF002071
:1004900070BD2B466A68BAB11068A04210D304F14F
:1004A000080188423CBF5068586007D35168101952
:1004B00041601168091B016058601460101D70BD17
:1004C00013465268002AE7D12146284600F004FB73
:1004D0000028DED170BD70B50446051F00F0F4FAA7
:1004E0000068002C14BF446870BD002C18BFAC42DB
:1004F0003CBF20466468F8D301680A18AA4218BFB6
:10050000456003D12A6805461144016028684119F5
:10051000A1421CBF6C6070BD6168696021680844BD
:10052000286070BD7CB51D4616460C00009001D0B9
:100530002044401E074B7B442A46694601903046C2
:1005400000F003FE05461CB10020694600F010FED5
:1005500028467CBD410C00000FB4044910B503AA25
:10056000029800F013FE10BC5DF814FBC8030010E5
:100570002DE9F0410646002410687529314616A57C
:1005800010D000F025FB002802DA404213A507E056
:1005900031688A0701D512A502E0490704D511A5E3
:1005A000012401E000F01DFB00210A2206F12407CE
:1005B00009E0B0FBF2FCB0FBF2F302FB1C003030B0
:1005C00078541846491C0028F3D123462A46304661
:1005D000BDE8F04100F037BB000000002D00000036
:1005E0002B000000200000002DE9F05F8946044642
:1005F0004FF0000ADFF874B1FB44C0F820A0204699
:10060000E1688847002874D0252806D0D4E9012164
:100610009047206A401C2062F1E700265F46204692
:10062000E16888472028054607DB312D05D2781977
:1006300010F8200C08B10643F1E7B00701D526F009
:100640000406C4F81CA00027C4F818A02A2D09D05D
:10065000284603F078FA38B304EB8708303DC8F831
:10066000185019E059F8041B204604EB87029161E9
:10067000E1688847012F054618D1E069002820DA93
:1006800026F020061DE0D8F8180000EB800005EBEE
:1006900040003038C8F818002046E1688847054611
:1006A00003F051FA0028EED1012F0AD02E2D08D1E7
:1006B0002046E16888477F1C0546022F46F0200649
:1006C000C4DBA069002803DA404246F00106A061BD
:1006D000F00701D026F010066C2D0BD0682D09D044
:1006E0004C2D39D06A2D35D0742D35D07A2D33D09C
:1006F00016E038E0E1682F4620468847B8420546B4
:1007000009D16C2F26D04FF48060E1680643204663
:100710008847054604E06C2F1AD04FF480700643DA
:100720000DB3A5F14100192802D8203546F4006622
:100730004A462946204626604E46FFF71BFE80B1FA
:1007400001280BD0F61D26F0070000F1080956E736
:100750004020E4E78020D8E70020D6E706F104092E
:100760004DE7284652E7206ABDE8F09FCC680000BC
:1007700070B50446C068810713D0800601D5A56A0C
:1007800004E0A169606808442169451A204600F028
:1007900005FF002206462946204600F02BFE304683
:1007A00070BD002070BD70B510B1BDE87040DFE7CE
:1007B0000025074C6E1E07E02046FFF7D9FF00B169
:1007C0003546206D20F00104002CF5D1284670BD7F
:1007D000740300102DE9F0410C46074616461046FA
:1007E00000F0BCFF2078611C61280AD0722802D07A
:1007F00077283CD102E00125002405E002250424ED
:1008000002E0082448F2020511F8010B2B2806D05B
:10081000622809D011F8010C74280AD00BE045F0C9
:10082000030544F00204EFE745F0040544F0010439
:10083000EAE744F010043846214603F00DFA411C63
:1008400015D00021316171604FF40071F560F161E4
:100850007061200704D530460222002100F0CAFD55
:10086000306D40F0010030653046BDE8F081002079
:10087000FBE72DE9F0410D460646104C206DC107FF
:1008800004D0410804D020F00104F7E722460EE02E
:100890005420FFF7F1FD07000ED0206D47F0010155
:1008A000084354212065384600F0A6F83A46294608
:1008B0003046BDE8F0418DE70020D6E77403001014
:1008C00010B5431C02E010F8011B71B18107FAD189
:1008D0004FF0013202C88C1A8C4314EAC211F9D0CD
:1008E000C01A0A0603D0C01E10BDC01A10BD0A04EB
:1008F00001D0801E10BD0902FCD0401E10BD40EA90
:10090000010370B59B072ED14FF00136042A2AD37C
:1009100008C810C99D1B9D43121F15EAC61517D0A4
:10092000D8B2E1B2401A50EA056110D198B2A1B232
:10093000401A50EA05410AD123F07F4024F07F415C
:10094000401A50EA052102D1180EA0EB146070BDC8
:10095000A342DBD018BA21BA884201D9012070BD68
:100960004FF0FF3070BD0AB9002070BD10F8013B98
:1009700011F8014B63B1A3420AD1521E08D010F8FE
:10098000013B11F8014B1BB1A34201D1521EEDD125
:10099000181B70BD10B5203AC0F00B80B1E818509C
:1009A000203AA0E81850B1E81850A0E81850BFF459
:1009B000F5AF5FEA027C24BFB1E81850A0E81850F8
:1009C00044BF18C918C0BDE810405FEA827C24BF4C
:1009D00051F8043B40F8043B08BF7047D20728BFDA
:1009E00031F8023B48BF11F8012B28BF20F8023B29
:1009F00048BF00F8012B70474FF0000200B51346C6
:100A000094469646203922BFA0E80C50A0E80C502E
:100A1000B1F12001BFF4F7AF090728BFA0E80C50DF
:100A200048BF0CC05DF804EB890028BF40F8042BD8
:100A300008BF704748BF20F8022B11F0804F18BF45
:100A400000F8012B704700004FF0013C50F8042BD8
:100A500051F8043B9A4221D1A2EB0C03934313EAD1
:100A6000CC1317D150F8042B51F8043B9A4215D1FE
:100A7000A2EB0C03934313EACC130BD150F8042BD5
:100A800051F8043B9A4209D1A2EB0C03934313EAB9
:100A9000CC13DBD04FF00000704700BFD01A01BA72
:100AA000B1FA81F101F0180122FA01F0CB40C1F155
:100AB0002001DBB2C0B2C01A2CFA01F3D11A914363
:100AC00011EAC311E6D17047004870477004001066
:100AD000704770477047704738B504460A46002093
:100AE000694601F07CF9002808BF38BD024600992C
:100AF000204600F05DFE012038BD012001F05CB908
:100B0000F8B501F061F9054600200C46102000BF41
:100B10000646A819A0420DD932466946002001F0C8
:100B20005EF9070008BF01F047F90098A04218BF1E
:100B30000546C419FFF7C8FF05600746F01D20F001
:100B400007004619284600F00AF8B44208BFF8BD6D
:100B5000A21B31463868BDE8F84000F029BE0021EC
:100B60000160C0E9011070471020704710B5FFF711
:100B70007FFC006810BD10B50446FFF779FC0460E7
:100B800010BD70B5044685690068C10601D53026E0
:100B900000E02026C00707D070BDD4E9012130460F
:100BA0009047206A401C20626D1EF6D570BD70B55E
:100BB000044685690078C00707D170BDD4E90121DA
:100BC00020209047206A401C20626D1EF6D570BD23
:100BD00009684A0501D540B27047C905FCD500B285
:100BE000704709684A0501D5C0B27047C905FCD5F0
:100BF00080B2704770B50C460546012A05D02878AA
:100C0000800600D5EA69002302E0012305E05B1CB1
:100C1000934202D2E05C0028F9D1A869E618C01A14
:100C2000A861286A184428622846FFF7AAFF04E052
:100C3000D5E9012114F8010B9047B442F8D32846B6
:100C4000FFF7B5FF70BD2DE9F0470D469946924676
:100C5000044600F124080168880604D5E06921F003
:100C60001001216000E00120A84201DD471B00E0E7
:100C70000027A1697A1902EB0900081AA0612078FF
:100C8000C00602D42046FFF77CFF002608E0D4E926
:100C900001211AF806009047206A401C761C206249
:100CA0004E45F4DB2078C0060AD52046FFF769FFE1
:100CB00006E0D4E9012130209047206A401C2062E0
:100CC000381EA7F10107F4DC07E0D4E9012118F888
:100CD00005009047206A401C2062281EA5F10105EE
:100CE000F3DC2046FFF763FF2078000602D50220E0
:100CF000BDE8F0870120FBE711680268006A530530
:100D000001D508700AE0D30501D5088006E0130676
:100D100003D5C217C1E9000200E008600120704756
:100D200070472DE9FF4F0C461E464FF0FF378BB042
:100D3000D2E90001DDF860800A908A46C1F30A55C5
:100D400005B93D46002108464FF00000BAF1000FFA
:100D500000F4400005DA00EB80004FF4400101EAA6
:100D600050004FEA9059B9F1010F00DDB9460A98D9
:100D700050EA4A000ED044F61050A5F2FF35454324
:100D80002F14B8F1000F1ED07542291E1EDDC9F1C7
:100D900000021CE0B8F1010F4FF0000001D030213B
:100DA00003E0F24305E02154401CB042FBDB304637
:100DB0000022002121540B99C1F80880C1E90020CC
:100DC0000FB0BDE8F08FBD1B6D1CDEE74A4600DAB0
:100DD000694206A800F036FF06AB93E8070003ABB4
:100DE00083E8070050460A9901F077F98DE807007B
:100DF000A0F500501F3800900398002D0ADD42F244
:100E00001F014A460844002303A90390684601F0E5
:100E1000E0FB09E0A0F500504A461F38002303A973
:100E20000390684601F0EAFB8DE807000004000C1F
:100E300003D04FF0FF30410800E01046B8F1000F3A
:100E400003D00022009215461EE0751E05D400F066
:100E5000C9FC303262556D1EF9D5B34601220843F4
:100E600002D000227F1C04E02078302801D100222B
:100E70007F1E002A099784D01DE0112D07DA00F0AB
:100E8000B1FC303262556D1C50EA0102F5D10843C5
:100E900002D00098C8B10EE00021681E05E0235C76
:100EA000625C63542254401E491C8142F7DBAB460E
:100EB000A81B401E0990002004F80B000B98099A0B
:100EC000C0F80880C0E9002B7AE711264FF000082F
:100ED00057E72DE9F04F88460446D21D22F007015E
:100EE00091B0D1E90001CDE90A0102F0F5FD024619
:100EF0000B98C00F01D02D2007E02068810701D595
:100F00002B2002E0202101EAC000032A099001D031
:100F1000072A05DB03464146204600F027FE0BE189
:100F20002078800601D5E06900E00620B8F1650F61
:100F3000814606D0B8F1660F18D0B8F1670F70D1AE
:100F400031E00020B9F1110F009001DB112301E025
:100F500009F101030AAA01A90CA8FFF7E2FEDDE9E5
:100F60000C70002609F10105834647E001204B463D
:100F700000904FF000470AAA01A90CA8FFF7D1FE84
:100F8000DDE90DB00C995D46002610B909F10100AC
:100F90000D18B9EB050003D4C0F1FF3609F10105C6
:100FA000A5EB09002BE0B9F1010F01DA4FF00109BF
:100FB0000020B9F1110F0090484601DD112300E037
:100FC00003460AAA01A90CA8FFF7ABFEDDE90C70E5
:100FD0004D4600268346207800070AD4AB4500DA48
:100FE0005D4601A8012D04DD411911F8011C3029CD
:100FF00007D04F4502DA17F1040F04DA01208246C8
:101000000FE06D1EEEE7002F02DCED1B3E4403E017
:10101000781CA84200DD7D1CB81B00F1010A4FF0CE
:1010200000472078000703D4AA4501DB4FF0FF3AC0
:101030000021B7F1004F0DF143088DF8431024D083
:1010400002202B23002F01DA7F422D230A21021ECA
:10105000A0F1010000DC5FB197FBF1FC97FBF1F21E
:1010600001FB1C7C17460CF1300C08F801CDEEE7B3
:10107000A8F1010003702188090501D5452100E090
:101080006521A0F1010800F8011C09980FA9A1EB46
:101090000807FF1D00B10120411901EBEA70A169A9
:1010A0003844081A401EA0612078C00602D42046A9
:1010B000FFF767FD099828B1D4E901219047206A1C
:1010C000401C20622078C00622D52046FFF759FD3B
:1010D0001EE0002E04DBB34502DD01A8805D00E0C8
:1010E0003020D4E901219047206A401C2062761C00
:1010F000AAF101005FEA000A0AD100F055FBC068BE
:101100000168405CD4E901219047206A401C2062BC
:10111000281EA5F10105DCDC07E0D4E9012118F85F
:10112000010B9047206A401C2062381EA7F101077E
:10113000F3DC2046FFF73BFD032011B041E6000041
:1011400001694A1C02610878704700B58FB0CDE98B
:1011500001310021059105497944CDE9031011467B
:101160006846FFF741FA0FB000BD0000E5FFFFFF42
:101170000A6802F8010B0A607047D1E900239A421D
:1011800002D2531C0B60107070470000074B70B503
:101190000D467B44FFF7D9FF0446284600F026F9A8
:1011A00010B14FF0FF3070BD204670BD4B310000D4
:1011B0002DE9FF5F15468A460446DFF8AC80F84407
:1011C0000027D8E900103E46CDE9001010E03AF8BB
:1011D00016106A4602A800F0C8FD411C07D021780D
:1011E000890603D5E269391891420DD80744761C67
:1011F0002078800602D5E069B84205DDAE42E6DB24
:101200003AF816000028E2D1A069C01BA061204670
:10121000FFF7B7FCD8E90010CDE90010002017E077
:101220003AF818106A4602A800F09FFDB0F1FF3F9F
:1012300081460BD000250DF1080B05E0D4E9012112
:101240001BF8050090476D1C4D45F7D308F10100D0
:10125000B0428046E4DB206A384420622046FFF733
:10126000A6FCBDE8FF9F00001A5D00002DE9F041DB
:101270008046D21D22F007020025D2E90002F5299E
:1012800015A614D0011E72F1000106DA0023D0EB7E
:10129000030063EB020211A608E0D8F800108B07E8
:1012A00001D50FA602E0490701D50EA6012511467A
:1012B000002408F1240704E000F094FA30323A5593
:1012C000641C50EA0102F7D12B46324621464046C3
:1012D000BDE8F041FFF7B7BC000000002D000000A2
:1012E0002B0000002000000030B4002100F1240495
:1012F00008E002F00705D208303542EA4372DB0805
:101300006554491C52EA0305F3D10468002310A276
:10131000250707D5A40600D421B1C46901230DA275
:10132000641EC46130BCFFF78EBC10B50446214674
:101330001068FFF756FC02462046BDE81040002327
:10134000D2E7D21D22F00701D1E90023CCE700004B
:101350000000000030000000F0B40D4601880905CF
:1013600002D5214C7C4402E01F4C7C440E34002109
:1013700000F1240608E002F00F071209E75D42EAD7
:1013800003721B097754491C52EA0307F3D1027810
:101390000023120704D5702D06D009B102231134A1
:1013A0002246F0BCFFF74FBC01231034F8E770B5BC
:1013B00004460D4621461068FFF713FC02462946F5
:1013C0002046BDE870400023C6E7D21D22F0070387
:1013D000D3E90023C0E70368126843F020030360E9
:1013E0000823C3610023B7E77C5B0000007B00F0AB
:1013F000800070472DE9F041044616460D464769C6
:10140000007B80072ED0384602F006FC50BB3EB36E
:10141000012E02D0022E25D104E0204600F084FCEB
:1014200005441DE0384602F0D1FBE168002841F098
:101430001001E16005DA204600F07CF80120BDE8EB
:10144000F081C9030BD56268E16A914200D8114668
:10145000A26911442269891A814200DD08460544C7
:10146000002D01DA0220EAE7E16A6068E268814261
:1014700006D29103E06203D522F4003141F010025C
:10148000A6690027AE4213DCE16A814201D90B460E
:1014900000E0034603EB060C2369ACEB030CAC4500
:1014A00006DD814201D98C4600E084469C4505D189
:1014B000A760276042F02000A5620DE0AD1BE66941
:1014C000AE1B8142A66000D90846C01A281A2060C7
:1014D0005819606022F0200003490840E0600020B5
:1014E00084F84870ABE70000BFCFD7FF70B5C46881
:1014F000A50713D0650211D4B2F5807F09D0B2F5EB
:10150000007F06D0B2F5806F08D1012300F12401DD
:1015100006E05D1E6FF07F46B54201D3012070BD2D
:101520000161C361416024F470611143C160002016
:1015300070BD0000C16821F4001141F08001C1605C
:1015400000218160016070472DE9F0478146144613
:101550000E464FF0FF383248D5685769054209D02A
:101560003846A16902F07CFC002811DB2C48C043FE
:101570000540E5602B4632464946384602F098FC65
:10158000A16920F00042B21A11440028A16103D0E1
:101590002046FFF7CFFF4046BDE8F08770B5044610
:1015A0000569C06A6168884200D80846E16821F48C
:1015B0002011E160C90312D5A84208D02246411B80
:1015C0002846FFF7C1FF10B14FF0FF3070BD00207B
:1015D000E562C4E90150E06820F48030E06000205A
:1015E00070BD10B50446C06820F02000E060A16A1C
:1015F000A06988420DD02046FFF7D0FFE06820F4B4
:10160000405040F01000E060A06AA0612069E062F4
:10161000606044F24001E0688843E06010BD000073
:101620001000020010B542485421FFF7E5F9414887
:101630005421FFF7E1F940485421FFF7DDF93F4914
:101640003B483C4A3F4B08603D490A603A491960B3
:10165000531C0365481C1065012008653B48344A4B
:1016600039A17844FFF7B6F820B9384878440A38E9
:1016700000F09BFB37482F4A35A17844FFF7AAF8C2
:1016800020B9344878440A3800F08FFB32482A4A9F
:101690002FA17844FFF79EF820B92F4878440A38E4
:1016A00000F083FB40232248DC0000212246FFF7A4
:1016B0001DFF20B125487844543800F076FB1D48C2
:1016C000224640230021FFF711FF20B12148784432
:1016D000543800F06AFB1848224610230021FFF717
:1016E00005FF002806D01C487844BDE81040563855
:1016F00000F05BBB10BD104870B5006D20F0010418
:101700000B4800F02BF80B4800F028F80A4800F0CE
:1017100025F809E0206D20F00105204600F01EF8B4
:101720002046FEF7D8FE2C46002CF3D170BD0000F9
:1017300074030010C80300101C04001024010010E2
:10174000280100102C010010720000001A56000041
:101750007700000009560000F95500002DE9F04718
:1017600004464FF000094FF0FF37C568D4E90486FE
:10177000A80707D02046FFF711FF304602F000FA15
:10178000002802DA3846BDE8F087280502D5404631
:10179000FEF7A1FE4C212046FFF72EF9206D20F028
:1017A000010020654846EEE70048704774040010C9
:1017B000034640688C46002818BF88423CBF034659
:1017C0004068F8D318681844884207D00CF1030029
:1017D00020F00700001D411A521A0146081D0A6038
:1017E000FEF779BE30B5B0F10A024FEA900E71F102
:1017F00000034EEA817EB0EB0E0061EB91014FEAEF
:10180000101E4EEA017E10EB0E0041EB11114FEA63
:10181000102E4EEA016E10EB0E0041EB11214FEA43
:10182000104E4EEA014E10EB0E0041EB11414018F4
:1018300041F100014FEAD00040EA41704FEAD10186
:1018400010EB80054FEA810444EA907444EB0104F4
:101850006D1944EB0404521BA3414FF0000348BF31
:101860000A3200D530BD401C41F1000130BD0000FE
:101870002DE9F04F04460D46D21D22F0070089B035
:10188000D0E900974846394602F026F90246F80F9B
:1018900001D02D2307E02068810701D52B2302E02A
:1018A000202101EAC0038DF820300BB1012000E0B7
:1018B0000020032A824601D0072A04DB294620465D
:1018C00000F054F93FE12078800601D40D2500E0B6
:1018D000E569C7F30A560D2D49DA00214FEA175B77
:1018E00008464FF00000002F00F4400007DA00EB3C
:1018F00080004FF4400100EBD07001EA60008115D8
:10190000012901DD4FF0FF3100224FEA850CBCF1C7
:10191000180F06D31346ACF118004FF08052C240A6
:1019200003E04FF4801323FA0CF30CF10C0CBCF120
:10193000200F04D3ACF1200C09FA0CF001E007FAF7
:101940000CF000294FF0004801DD18B90FE00ED16E
:1019500040450CD319EB02095F4121B9404502D142
:101960009F4329EA0209BBEB175F00D0761C208851
:10197000000502D57B48784402E07A48784419385B
:1019800008AA302302F80A30037C0AF10101002E74
:101990000AF1020A53546A4602DC4FF0300101E0BA
:1019A0004FF031014FF001088DF8001002D0A6F27F
:1019B000FF3603E059EA470100D06B4E002D02DCF0
:1019C0002178090704D54FF002082E218DF8011067
:1019D000C44600210BE0C7F303433F01C35C491C2D
:1019E0006D1E02F80830052908F1010801DA002D02
:1019F000F1DC00210CE000EB1973491C1B786D1E13
:101A0000082902F808304FEA091908F1010801DA3B
:101A1000002DF0DC21688B0602D516E0A8F1010844
:101A2000E04505DD02EB080313F8013C302BF5D04F
:101A3000B8F1000F09DD02EB080313F8013C2E2B6F
:101A400003D1090701D4A8F10108002D05DD3E21CD
:101A500002F808106D1E08F10108407C002E02F803
:101A6000080008F1010804DA2D20764202F8080087
:101A700002E02B2002F808000A214FF47A70864217
:101A800008F101080BDB96FBF0F3303302F8083065
:101A900096FBF0F308F1010800FB136601E0642EE9
:101AA0000CDB642096FBF0F3303302F8083096FB31
:101AB000F0F308F1010800FB136601E00A2E06DBD3
:101AC00096FBF1F0303002F8080008F1010896FBAF
:101AD000F1F001FB1060303002F80800A16908F154
:101AE000010808EB050202EB0A00081AA061207841
:101AF000C00602D42046FFF744F8216A08AE01EB85
:101B00000A00206204E0D4E9012116F8010B904795
:101B1000BAF1010AF7D22078C00602D52046FFF7B5
:101B200030F86E4609E016F8010B3E280FD0D4E9D4
:101B300001219047206A401C2062B8F10108F2D2CE
:101B40002046FFF734F809B00320BDE8F08F206A83
:101B50002844206203E0D4E90121302090476D1E23
:101B6000EBD3F8E7A555000002FCFFFF2DE9F0419B
:101B70001F46044603260168072A01F4006004DBBF
:101B800008B116A505E016A503E008B115A500E00B
:101B900015A521F010002060A069C01EA0610FB142
:101BA000401EA0612046FEF7ECFF4FB1D4E90121B1
:101BB00038469047206A401C2062C01C206206E024
:101BC000206AFAE7D4E9012115F8010B9047761E47
:101BD000F8D22046FEF7EBFFBDE8F0814E414E0003
:101BE0006E616E00494E4600696E660010B543692D
:101BF00013B1AFF3008001E0FEF7FCFF012010BD40
:101C0000127800F124010A7000224A700122EDE7E7
:101C100011684FF0FF32E9E710B5436913B1AFF334
:101C2000008001E0FFF7C4FA012010BD128800F126
:101C3000240182840022C2840122EDE711684FF062
:101C4000FF32E9E72DE9F047814616468AB035486C
:101C500078440DC88DE80D0032487844801C03ACF0
:101C60000DC884E80D0041F69B300844372190FBF5
:101C7000F1F290FBF1F5A5F1800501FB12041B3C8C
:101C800002D56442012000E00020DFF898A08046E1
:101C90000027FA44AAF1BE0A0EE0E0070AD0324655
:101CA000684607EB470101230AEB810100F0A6FC1F
:101CB0008DE8070064107F1C002CEED1194F7F4483
:101CC000AE3F19E0E80715D007EB04100DF1180A34
:101CD00090E80E008AE80E00C068F04201D1981921
:101CE00008903246012306A903A800F087FC03AB45
:101CF00083E807006D10641C002DE3D14FF0010351
:101D000032466946B8F1000F03A802D000F061FC2A
:101D100001E000F073FCC9E90001C9F808200AB02D
:101D2000BDE8F0875C53000010B50146C26890071B
:101D300003D0900607D5886A0AE0FEF799FB0121D7
:101D40000160881E10BD8B69486818440B69C01A71
:101D500091F848301BB191F84910401A10BD110399
:101D6000FCD50028FADD401E10BD70B516460C46A5
:101D7000054600F051F8036893F80101012806D0E8
:101D8000FF2C0FD8185D68B101202C7070BDD3F8FE
:101D900007013246214603F2071303442846BDE8F3
:101DA000704018474FF0FF3070BD10B500F02CF9AF
:101DB000BDE8104000F023B910B500F03FF9BDE8D0
:101DC000104000F01CB90000124B694600F580522B
:101DD0008A421A6001D8114670471960704730B5C1
:101DE0000C4D6B46A3F580532C6822449A420FD8C1
:101DF0009B1A02F5805003EBD37302EB6303984206
:101E000000D91846C01D20F007020C60101B2A6084
:101E100030BD00003001001010B5FFF7C5FC001DFB
:101E200010BD00BF153B00002DE9F04705460C46EC
:101E3000C86820F4201040F48000C860800602D5F5
:101E40000846FFF7CEFBE06841F282014FF0FF3910
:101E50000140022903D02046FFF76CFBB5E000F4F7
:101E60002041B1F5004F0FD1C00306D56168E06A8B
:101E7000884200D80846606006E02069E062606041
:101E8000606901F0A3FEA061A0680022EEB2002804
:101E90000DDAE1688B050AD4C043A06041F49030AC
:101EA0002260E0606068411C61600670A5E0E06847
:101EB0009046226040F40050E060206968BB606991
:101EC00001F0AAFE012704F12405A0B1A08910F4B5
:101ED000407F08D0E069FEF7CFFA206118B1E068D2
:101EE00040F4006016E0E7612561E06820F440708E
:101EF00040F480600EE0E069FEF7BEFA0028206141
:101F0000F1D0E06840F4006010F4407FE06002D15E
:101F100040F48070E06020696060E06825696FF0DF
:101F2000010AC1051FD56168E06A884200D80846E9
:101F3000411B04D022462846FFF706FBF0BBE068B1
:101F4000010203D5E562C4E9015854E0691CE1626D
:101F50006160E16940F48030491EC4E902103046F6
:101F60002E70BDE8F087010202D500F480320AE04D
:101F70006068411C61600670E0680A2E40F48030A1
:101F8000E06006D00022E16A6068814203D90B4616
:101F900002E00122F7E70346A7895B1B7F0503D414
:101FA000E7699F4200DDE2B1814200D80146E56267
:101FB0000F1AC4E90158002B09DD00E005E02246B4
:101FC00019462846FFF7C0FA08B14846C9E747B1A5
:101FD000A069E5626560C01BA061E06840F0100088
:101FE000E060E068000208D56168A069E562491B0D
:101FF00008446560A0615046B3E73046B1E7002869
:1020000001D000F043B8704710B5014602A000F0BF
:1020100043F8012010BD0000534947525452454433
:102020003A2052656469726563743A2063616E2771
:1020300074206F70656E3A200000000010B5012812
:1020400005D0002103A000F027F8012010BD09A150
:10205000F8E7000053494752544D454D3A204F751B
:1020600074206F662068656170206D656D6F727990
:10207000000000003A2048656170206D656D6F7248
:102080007920636F7272757074656400014918205D
:10209000ABBEFEE72600020070B505460C460A20DE
:1020A00000E06D1C00F011F835B128780028F8D157
:1020B00002E0641C00F009F814B120780028F8D17F
:1020C000BDE870400A20AFF3008008B569468DF87E
:1020D00000000320ABBE08BD70475FEA400C08BF9C
:1020E00091F0000F4FEA8C234FEAC12243EA51518D
:1020F0004FEA1C5018BF00F5F0404FEA300018BFFF
:1021000041F000415FEA6C5C00F02980BCF1FF3FC8
:1021100008BF40F080407047130C06BF12044FF018
:10212000100C4FF0000C130E04BF12020CF1080C3F
:10213000130F04BF12010CF1040C930F04BF9200A3
:102140000CF1020CD30F04BF52000CF1010C11462C
:102150004FF00002A0F11F00A0EB0C00704711F03F
:10216000004F08BF704731F000413FF4D5AF0B0C72
:1021700006BF09044FF0100C4FF0000C0B0E04BF0B
:1021800009020CF1080C0B0F04BF09010CF1040C3F
:102190008B0F04BF89000CF1020CCB0F04BF490068
:1021A0000CF1010CCCF12003A0EB0C0022FA03F39C
:1021B00002FA0CF241EA030100F10100704720F03D
:1021C0007F4C80EA030023F07F47ACEB070303F565
:1021D0007C5300F0004003F1FF032DE980494FEAF2
:1021E000154B09B44FEA144325EA0B4E24EA034881
:1021F0000FF2042606EB132749083E785FEA320205
:1022000003FB0667C7F5000707FB06F64FEA5437DE
:102210004FEAD64606F1020607FB066CCCF1005CDD
:102220004FEA1C472CEA074C07FB06F40CFB06F5AB
:1022300004EB15464FEA961634BF00204FF00040DD
:102240004FEAD13706FB07FC4FEA1C4C0CFB0BF79F
:10225000D21B03FB0CF761EB07010CFB0EF7B0EB95
:10226000074072EB17420CFB08F734BFA2EB0742A2
:10227000B2EB074261EB17414FEA0C444FEA91077A
:1022800006FB07FC4FEA1C4C0CFB0BF7B0EBC740FE
:1022900072EB573203FB0CF734BFA2EBC742B2EB31
:1022A000C74261EB57310CFB0EF7B0EBC70072EB86
:1022B00057720CFB08F734BFA2EBC702B2EBC702A0
:1022C00061EB5771039F4FEA816141EA921104EB80
:1022D000CC044FEAD1374FEA826206FB07FC42EAA0
:1022E00090124FEA80604FEA1C4C0CFB0BF7D21B9C
:1022F00003FB0CF761EB07010CFB0EF7B0EB07409B
:1023000072EB17420CFB08F734BFA2EB0742B2EBAB
:10231000074261EB17414FEA8C554FEA910704EBF6
:102320009C2406FB07FC4FEA1C4C0CFB0BF7B0EBA4
:10233000C74072EB573203FB0CF734BFA2EBC74226
:10234000B2EBC74261EB57310CFB0EF7B0EBC700A5
:1023500072EB57720CFB08F734BFA2EBC702B2EB6B
:10236000C70261EB577115EB4C254FEA816141EAD9
:1023700092114FEA82624FEAD13742EA901206FB8D
:1023800007FC44F100044FEA80604FEA1C4C0CFB50
:102390000BF7D21B03FB0CF761EB07010CFB0EF7ED
:1023A000B0EB074072EB17420CFB08F734BFA2EB0F
:1023B0000742B2EB074261EB174115EB1C154FEAE0
:1023C000813141EA92414FEA823242EA90424FEA39
:1023D00080304FEA0C7644F1000448EA03434EEAA9
:1023E0000B484FF0000EB2EB080C71EB030724BF53
:1023F000624639464EEB0E0E4FF0000B001852416C
:1024000049414BEB0B0BB2EB080C71EB03077BF173
:10241000000B24BF624639464EEB0E0E4FF0000B08
:102420000018524149414BEB0B0BB2EB080C71EB1E
:1024300003077BF1000B24BF624639464EEB0E0EBC
:1024400051EA020718BF46F0010616EB0E7655F169
:10245000000254F1000103D5BDE88901BDE8008800
:10246000BDE88901BDE80048B619524141EB0101C0
:10247000A3F10103704780807F7E7D7C7B7A797831
:10248000777676757473727171706F6E6E6D6C6C39
:102490006B6A6A69686867666665646463636261DB
:1024A0006160605F5F5E5E5D5D5C5C5B5B5A5A595C
:1024B00059585857575656555555545453535252C8
:1024C0005251515050504F4F4F4E4E4D4D4D4C4C20
:1024D0004C4B4B4B4A4A4A49494948484847474769
:1024E00047464646454545444444444343434342A6
:1024F000424242414141002B9C4630D477002BD0D0
:102500001CB54FEA370703B44FF010004FF010012D
:10251000BAF1000F06D0BCF1000FDCBF40F008009C
:1025200040F008014FF000000FBCBDE810400BF177
:10253000010BBBF1010F08BF5FEA170722BF12F1C1
:10254000010211F101014FF0004143F1000300F0DD
:10255000004043EA00007047F9D35708D0E746EA45
:10256000064613F1400F4FEA16461FDD13F1200F08
:10257000DFBF16430A46002120335B42BED0C3F1C1
:10258000200746EA064602FA07F74FEA164646EAE9
:102590000706C3F1200722FA03F201FA07F721FA2E
:1025A00003F14FF0000342EA0702A7E746EA0206FA
:1025B00046EA06464FEA164646EA0106BCBF46EA28
:1025C0000646360C4FF000034FF000024FF00001BA
:1025D00094E72DE9804C9A46934670B491E8380010
:1025E00007C831EA400C48BF34EA430C03D5FFF773
:1025F000E6FDFFF780FFF0BCBDE8008C2DE9804CC4
:102600009A46934670B491E8380007C810F0804F9E
:1026100008BF13F0804F03D100F005F8FFF76BFF00
:10262000F0BCBDE8008C20F07F4780EA030023F077
:102630007F4C07EB0C03A3F57C5300F00040A3F1A3
:10264000FE0392F0000F00F0B38095F0000F00F051
:1026500077802DE901494FEA11404FEA144621EAFB
:10266000004800FB06FC24EA064708FB06F607FBC9
:1026700008F800FB07F718EB06484CEB164C4FEA3E
:10268000124B18EB07484FEA15464CEB174022EA6D
:102690000B4E0BFB06FC25EA06470EFB06F607FB76
:1026A0000EFE0BFB07F71EEB064E4CEB164C4FF0E5
:1026B00000061EEB074E4CEB174B18EB0B0840F1D6
:1026C000000018EB0E0B58EB000840F100008F1AC9
:1026D0004FF000013CBFC943661B14BFB5EB040CAF
:1026E00000213CBFC943F61B4FEA17444EEA8E0E49
:1026F00027EA04454FEA1C4704FB07622CEA074C13
:1027000005FB07F70CFB05F604FB0CFC16EB074674
:1027100042EB174216EB0C4642EB1C421BEB060643
:1027200058EB0202414146EA9E0601D5BDE8018907
:10273000B619524141EB0101A3F10103BDE8018942
:102740004FEA14454FEA114724EA054621EA074CAF
:1027500005FB07F406FB07F70CFB06F105FB0CFC79
:1027600011EB074144EB17444FEA124711EB0C41C0
:1027700044EB1C4422EA074C05FB07F206FB07F773
:102780000CFB06F605FB0CFC16EB074642EB17426A
:1027900016EB0C4642EB1C456A1854F1000148BF89
:1027A0007047B619524141EB0101A3F10103704793
:1027B00095F0000F37D04FEA11424FEA144721EA53
:1027C000024624EA074C02FB07F106FB07F70CFB65
:1027D00006F402FB0CFC14EB074441EB17414FEAF3
:1027E000154714EB0C4441EB1C4125EA074C02FB56
:1027F00007F506FB07F70CFB06F602FB0CFC16EBD5
:10280000074645EB174516EB0C4645EB1C421219E3
:1028100051F1000148BF7047B619524141EB010127
:10282000A3F1010370474FEA14454FEA114724EA28
:10283000054621EA074C05FB07F106FB07F70CFBF1
:1028400006F24FF0000605FB0CFC12EB074241EBD1
:10285000174112EB0C4251EB1C4148BF70479218D4
:1028600041EB0101A3F10103704710B502F040F9FB
:10287000BDE8104001F0E4BF25482021C0F8A011B8
:10288000D0F8A01111F0200F05D000BFD0F8A01192
:1028900011F0400FFAD00221C0F804110022C0F854
:1028A000A821C0F8AC210121C0F80C110B23C0F8FD
:1028B0008430AA23C0F88C304FF0550CC0F88CC07F
:1028C000C0F88010C0F88C30C0F88CC0D0F88810E8
:1028D00011F0806FFAD00321C0F88010C0F88C305E
:1028E000C0F88CC0D0F8881011F0407FFAD00521D4
:1028F000C0F808110749C0F8C410C0F8C821016821
:1029000043F23A0221F47041114301607047000024
:1029100000C00F40DE87280438B5684600F0C8FEC6
:102920004121684600F0E2FD04462246022111A042
:10293000FDF712FE4721684600F0D8FD0446224606
:10294000042112A0FDF708FE4921684600F0CEFDE3
:1029500004462246002113A0FDF7FEFD4D216846E6
:1029600000F0C4FD04462246082113A0FDF7F4FD43
:1029700038BD0000444F54315F4F4646203D3D2056
:10298000256420676F742025640A0000444F543288
:102990005F4F4646203D3D20256420676F7420250B
:1029A000640A00004552524F52203D3D20256420CC
:1029B000676F742025640A00444F54345F4F4646C5
:1029C000203D3D20256420676F742025640A0000A7
:1029D0000FB470B504A800F002FF002486E025467D
:1029E000E01704EB90708010A4EB80004130C1B27E
:1029F000002204A800F0FFFE651CE81705EB9070AC
:102A00008010A5EB80004130C1B2012204A800F083
:102A1000F2FEA51CE81705EB90708010A5EB800076
:102A20004130C1B2022204A800F0E5FEE51CE8171F
:102A300005EB90708010A5EB80004130C1B20322FD
:102A400004A800F0D8FE254604EBD5704010A4EB96
:102A50004001002204A800F0B0FE04EBD570401045
:102A6000A4EB400008B9012000E00020014601224B
:102A700004A800F0A2FE254604EBD5704010A4EB9C
:102A80004001022204A800F098FE04EBD57040102B
:102A9000A4EB400008B9012000E000200146032219
:102AA00004A800F08AFE254604EBD5704010A4EB84
:102AB0004001042204A800F080FE04EBD570401011
:102AC000A4EB400008B9012000E0002001460522E7
:102AD00004A800F072FE601CC11700EB9171891010
:102AE000A0EB81044FF07C5002F0D8FE77E792B063
:102AF000002107A800F056FF1C220BA96846FDF72D
:102B000049FF07A80FC8FFF763FF92B0012107A88C
:102B100000F048FF1C220BA96846FDF73BFF07A801
:102B20000FC8FFF755FF000092B01D2107A800F065
:102B3000CAFC2FE007A800F0FDFA07A800F0F6FA9B
:102B4000069003F0F9FB04460D4607A800F0EBFAE7
:102B5000069003F0F1FB06460F4607A800F0E0FAE6
:102B6000069003F0E9FB8046894607A800F0B0FA1A
:102B7000069003F0E1FB824652460B4606A0CDE9E3
:102B80000089CDE90267CDE90445FDF7E5FC0D4874
:102B900002F084FECEE70000412025302E32662070
:102BA0002D2D20582025302E3266202D2D20592005
:102BB00025302E3266202D2D205A2025302E3266CB
:102BC0000A0000009A99993E70B504460D462E46BB
:102BD00000BF00BF2068401C20B9242207A116A016
:102BE00001F0A6FE00BF1EB1E1686068086002E067
:102BF00021696068086000BF70BD00006D62656497
:102C00002F5441524745545F4C5043313736382F8B
:102C10005441524745545F4E58502F5441524745F6
:102C2000545F4C5043313736582F6770696F5F6F70
:102C3000626A6563742E68006F626A2D3E70696E09
:102C400020213D202850696E4E616D65294E43005C
:102C500070B504460D4629462046FFF7B5FF2046CD
:102C600070BD000007480168002904BF011D016014
:102C7000001D814208BF70475D220349034801F0EF
:102C800057BE0000F8000010147000000070000033
:102C90002DE9F8430446006888461D46016817463A
:102CA000089E204688472068016820468847DFF84C
:102CB0004890D9F80000A04205D0201DA16801F07D
:102CC000D9FBC9F80040206841682046884786F053
:102CD000010000902B463A464146201D01F044FC7D
:102CE00006462068416820468847B54214BF012047
:102CF0000020BDE8F8830000F40000102DE9F8433F
:102D00000446006888461D4601681746089E20460E
:102D100088472068016820468847DFF84890D9F83E
:102D20000000A04205D0201DA16801F0A3FBC9F856
:102D30000040206841682046884786F001000090E6
:102D40002B463A464146201D01F0E6FC0646206827
:102D5000416820468847B54214BF01200020BDE8E5
:102D6000F8830000F400001007480168002904BF40
:102D7000011D0160001D814208BF70475D220349AB
:102D8000034801F0D5BD0000F800001014700000E9
:102D90000070000010B50446064820600020606006
:102DA0000548A060201D01F073FB04480460204624
:102DB00010BD0000D06F0000A0860100F4000010DC
:102DC00007480168002904BF011D0160001D814200
:102DD00008BF70475D220349034801F0A9BD000008
:102DE00004010010147000000070000070B504466B
:102DF00000680E468168204688470D4D2868A0422D
:102E00000AD0D4E902120023201D02F08DFA201D01
:102E1000216902F0E9FA2C603146201D02F0D4FB52
:102E200005462068C16820468847284670BD0000D6
:102E30000001001070B5044600680E461546816812
:102E4000204688472A460D4DC4E90262286831466B
:102E5000A0424FF0000304F1040002D102F064FA32
:102E600006E002F061FA201D216902F0BDFA2C6033
:102E70002068C1682046BDE8704008470001001086
:102E800007480168002904BF011D0160001D81423F
:102E900008BF70475D220349034801F049BD0000A7
:102EA00004010010147000000070000070B50446AA
:102EB00000680E468168204688470D4D26613146E0
:102EC0002868A04203D1201D02F08EFA0AE0D4E95E
:102ED00002120023201D02F027FA201D216902F0B2
:102EE00083FA2C602068C1682046BDE8704008471E
:102EF0000001001038B504461148DDF810C020600C
:102F000000200825C4E90105E0600E482061FF208B
:102F10002075201DCDF800C002F0E2FA0A4D2868A5
:102F2000A0420AD0D4E902120023201D02F0FCF9CD
:102F3000201D216902F058FA2C60204638BD00009F
:102F4000E86F000040420F0000010010007B704756
:102F500070B506460D46154802F004FD1448046895
:102F6000F4B1A068C8B12A463146FDF7C8FCA0B943
:102F7000A068FDF7A5FCA8420FD10C480168002904
:102F800004BF011D0160001D814204D05D2209497A
:102F9000094801F0CDFC204670BD6468002CE0D1EA
:102FA000024802F0DFFC002070BD00001C01001090
:102FB00018010010147000000070000010B50446E5
:102FC000406818B1FFF7C2FF012801D0002010BDF2
:102FD0006068002818BF001F10BD10B50446406887
:102FE00010B1FFF7B3FF08B1002010BD60680028E2
:102FF00018BF001F10BD4068002818BF012070478F
:1030000010B54068002808BF10BDFFF79FFF0028DB
:103010000CBF0120002010BD0068704710B50446A9
:1030200000202060606008782F280DD1487858B1C2
:103030004B1C00212360226810782F2806D038B15D
:10304000501C491C2060F6E7204610BD501C206033
:103050001846FFF77DFF6060204610BD7FB506462D
:103060000021019803F012FC0CD201AC03AD2168E1
:10307000286803F00BFB01D2284600E020460068D8
:1030800004B070BD01AC02AD2968206803F0FEFAFF
:1030900001D2284600E020460068F1E72DE9FC4116
:1030A00004460D4616461F46019501200090012357
:1030B00001AAD4E90901FFF721FE002000903B4658
:1030C0003246D4E90901FFF7E3FDBDE8FC810000C9
:1030D00070B504460021E06803F0D8FA16D2E16921
:1030E000E06803F097FC05460B4903F0CFFB04D2E0
:1030F000E169E06803F08EFC70BD0848E16903F007
:1031000089FC0546E16803F043F9F5E7E169E06809
:1031100003F080FCF0E70000000034C30000B4437B
:10312000014608687047014648687047014688684C
:10313000704700002DE9FF5F8246002003906B4836
:103140004069C0F300600290029808B1012003902A
:1031500003230AF1200201215046FFF79FFF9AF84E
:10316000200003F07FFACAF800006149DAF8000095
:1031700003F08CFB06D25F49DAF8000003F04AFC4A
:10318000CAF80000DAF8000003F0D6F88046002202
:10319000594B02F0A7FE06460022584B02F0DEFC17
:1031A000044602F0F5FB83464FF07E53544A5946DD
:1031B0005046FFF753FFCAF80000212111F80A001A
:1031C00003F050FACAF804004949DAF8040003F0A1
:1031D0005DFB06D24749DAF8040003F01BFCCAF88D
:1031E0000400DAF8040003F0A7F806460022424B78
:1031F00002F078FE80460022404B02F0AFFC04460D
:1032000002F0C6FB83464FF07E533D4A5946504676
:10321000FFF724FFCAF80400222111F80A0003F086
:1032200021FACAF808003249DAF8080003F02EFB48
:1032300006D23049DAF8080003F0ECFBCAF80800BF
:10324000DAF8080003F078F8064600222A4B02F06C
:1032500049FE04460022294B02F080FC804602F021
:1032600097FB83464FF07E53254A59465046FFF759
:10327000F5FECAF80800039818B1DAF80C00CAF88D
:103280001C00DAF80040204600F052FE05462946B0
:10329000504600F083F8CAF80C000021DAF8080064
:1032A00003F0F4F91FD2DAF8000003F045F8002229
:1032B0001346CDE9000102F013FF02D800211148A6
:1032C00001E00021104888468146DAF80C0003F03E
:1032D00033F8064642464B4602F038FF044602F0F9
:1032E00057FBCAF80C00BDE8FF9F000000C0092092
:1032F0000000FE4200007F430000104000007040CC
:10330000000080BF00806640008066C070B5044643
:103310002A21204600F0B8F8054645F001022A218E
:10332000204600F087F870BD70B506460D462A218C
:10333000304600F0A9F8044624F038042C43224615
:103340002A21304600F076F870BD000070B50446C2
:103350000C2000F0A7FB051E06D00F4A511E284680
:10336000FFF718FD054600E000206062204600F0EF
:1033700053F80021204600F095F830212046FFF751
:10338000D3FF204600F037F8204600F023F820460F
:10339000FFF7BCFF70BD00000BC009202DE9F05FF6
:1033A00083468A46504602F0C7FF80460022064BFD
:1033B00002F098FD0646054A054B02F0CFFB044695
:1033C00002F0E6FABDE8F09F00806640F1D4C853F1
:1033D000FB21094070B505462A21284600F054F823
:1033E000044624F0020444F0020422462A2128461E
:1033F00000F020F870BD70B505462B21284600F07E
:1034000043F8044624F0030444F0010422462B212F
:10341000284600F00FF870BD70B504462A212046FA
:1034200000F032F8054625F001022A21204600F07E
:1034300001F870BD7CB504460D4616468DF8045063
:103440008DF8056000200090022301AAD4E909014B
:10345000FFF754FC7CBD00000949496821F4C021F4
:10346000074A51600749096841F08071054A1160B7
:103470000349496C41F4C021014A5164704700007E
:1034800000C0024000C0092038B504460D460020A7
:10349000009001236A4629462046FFF7FFFD9DF86C
:1034A000000038BD70B506460D460E213046FFF7C8
:1034B000EBFF044624F003042C4322460E21304641
:1034C000FFF7B8FF70BD70B504460D466800A062F6
:1034D0002046FFF73BFF2046FFF7BEFF002020619C
:1034E0006061A061E061E060204670BD2DE9F041BF
:1034F00080460D460027E8B240F0BF06FF2E02D0FE
:103500000020BDE8F081E8B240F0FE06FF2E01D0B9
:103510000020F6E7052008E001218140C943294346
:10352000CEB2FF2E00D17F1C401E0128F4DCE8B291
:1035300040F0FD063846FF2E01D1012100E00021B8
:1035400000EBD0725210A0EB4202914201D0002059
:10355000D7E70024E8B240F0DF06FF2E00D10124B7
:1035600025F0E3008610072E28D2DFE806F00409D4
:103570000E13181D22000CB10120C2E70220C0E783
:103580000CB10320BDE70420BBE70CB10520B8E770
:103590000620B6E70CB10720B3E70820B1E70CB16D
:1035A0000920AEE70A20ACE70CB10B20A9E70C20FC
:1035B000A7E70CB10D20A4E70E20A2E702A0FCF7BC
:1035C000CBFF00209DE7000064656661756C740A9E
:1035D000000000002DE9F04780460024A1460025A8
:1035E000002600272CE01A480078C0F3001618487F
:1035F000543890F85400C0F34017314615A0FCF73A
:10360000ABFF394616A0FCF7A7FFB6B1B9F1000F22
:1036100013D10F485438406D012121EA5017394623
:103620000FA0FCF799FF47B1C4F1060101208840C3
:1036300005404FF00109601CC4B2642002F056F945
:10364000072CD0DB29464046FFF750FFBDE8F08746
:1036500054C00920436C6B3A2025640A0000000026
:10366000446174613A2025640A0000000E4909692A
:1036700021F4C0510C4A11611146096921F4C0615D
:1036800011610A49096C41F02001084A1164114690
:10369000096C41F0100111640349096D41F4C061E6
:1036A000014A11657047000000C0024000C00920B7
:1036B00000B503461846FFF7D9FF184600BD10B500
:1036C00004467621A06A00F0D9F910BD70B5044611
:1036D0000E4615467921A06A00F0D0F9E9B2A06A39
:1036E00000F0CCF93146A06A00F0C8F970BD30B5E1
:1036F00004460023002006E051F8205015B10125B2
:1037000085402B44401C9042F6DB184630BD2DE925
:10371000F0478446B42901DDB42104E011F1B40F6F
:1037200001DA6FF0B30111F1640F01DC2D2500E027
:1037300030250F1E01DBB84601E0C7F100084FF449
:103740007A7998FBF9FA09FB1A8808F0FF0411F15D
:10375000640F04DD11F10A0F01DC2D2003E0642762
:1037600094FBF7F7F8B2642794FBF7F807FB1847C8
:10377000FCB211F10A0F03DD002901DA2D2303E069
:103780000A2794FBF7F7FBB20A2794FBF7F807FB2D
:103790001847FEB22D2802D000F13007F8B22D2BC9
:1037A00002D003F13007FBB206F13007FEB215700C
:1037B00050709370D670BDE8F08770B504460D4622
:1037C0001646207828B932462946204600F03BF8B4
:1037D00004E032462946204600F05BF870BD10B583
:1037E0000446207818B9204600F09AF802E02046F6
:1037F000FFF765FF10BD70B504460D4616462078EC
:1038000028B932462946204600F0ACF804E032469A
:1038100029462046FFF75AFF70BD70B505460E4693
:1038200005F11C0231462846FFF771FF002407E02E
:1038300005F11C00015D22462846FFF7DCFF641CF1
:10384000042CF5DB70BD2DE9F04104460D4616460B
:10385000201D40F826500021606AFFF7F9F9206A20
:1038600001680A68772190470622211D2046276AB1
:10387000FFF73DFF8046386841460268384690476A
:10388000052002F033F80121606AFFF7E1F9BDE895
:10389000F0812DE9F04104460D461646201D40F802
:1038A00026507721A06A00F0E9F80622211D204663
:1038B000FFF71DFFC7B23946A06A00F0DFF8BDE888
:1038C000F081000038B50446182000F0EBF8051E22
:1038D0000AD04FF0FF30104B9A1C511C0090284624
:1038E000FFF708FB054600E0002020620021606A27
:1038F000FFF7AEF900220821206AFFF79BFA07497B
:10390000206AFFF7D3FA052001F0F0FF0121606A79
:10391000FFF79EF938BD00000FC00920A086010006
:1039200010B504460021606AFFF792F9206A016829
:103930000A6876219047052001F0D8FF0121606ACE
:10394000FFF786F910BD70B50446012000F0AAF813
:10395000051E04D0284600F09DF8054600E0002032
:10396000A06270BD70B504460E4615460021606A1F
:10397000FFF76EF9206A01680A6879219047206A8A
:1039800001680A6829469047206A01680A6831463A
:103990009047052001F0AAFF0121606AFFF758F95E
:1039A00070BD00002DE9F04104460E46267000204F
:1039B00004E00022211D41F82020401C0628F8DBED
:1039C000002004E0002204F11C010A54401C0428D9
:1039D000F8DB182000F066F8051E0BD00C4F1821FC
:1039E0002846FDF709F83946284600F0E7FC00BFF5
:1039F000284600E000206062207818B92046FFF7D2
:103A000061FF02E02046FFF79EFF2046BDE8F081FF
:103A100010C009201649096841F00071144AC43ADF
:103A2000C2F8C4101146D1F8AC1121F44021C2F8FB
:103A3000AC111146D1F8AC1141F48021C2F8AC119F
:103A40000C49096821F003010A4A1160114609680E
:103A500041F00A0111608021074AD16002215160C2
:103A6000712111600321D16007219160704700002E
:103A7000C4C00F4000C0024000C0094000BF044A5B
:103A8000127D02F02002002AF9D0014A116070472D
:103A900000C0094000B503461846FFF7BBFF1846B3
:103AA00000BD000010B5FCF7E7FC040004BF02A055
:103AB00000F07EFB204610BD4F70657261746F721E
:103AC000206E6577206F7574206F66206D656D6F51
:103AD00072790D0A00000000490050EAC12018BFA9
:103AE00004204A0D18BF40F0010040F2FF72B2EB13
:103AF000515F08BF40F00200012808BF0520704751
:103B00004100080218BF04200A0E18BF40F001004F
:103B10004FF07F4232EA010108BF40F00200012865
:103B200008BF05207047012103F01FB80021084697
:103B300002F0A2BC6FF05E01080703F016B810B5E2
:103B400000F008F810BD30380A2801D20120704773
:103B50000020704702486A4620F0070070470000C6
:103B60008F04001010B5054C21686006C422FCF7D4
:103B700011FF6006206000F0BCFF10BD08ED00E002
:103B80000328BCBF0020704710B500220E4901EB8E
:103B9000800151F80C0C41F80C2C68B1016849699E
:103BA000884704005CBF002010BDFCF761FC614247
:103BB00001604FF0FF3010BDFCF75AFC0921016095
:103BC0004FF0FF3010BD00003802001010B5032880
:103BD00005DAFCF74DFC05210160881F10BD0D4979
:103BE00001EB800050F80C0C60B10168896A8847CD
:103BF000040058BF10BDFCF73BFC614201604FF070
:103C0000FF3010BDFCF734FC092101604FF0FF309C
:103C100010BD0000380200100328BCBF012070470F
:103C200010B50C4901EB800050F80C0C58B101683C
:103C3000C9698847040058BF10BDFCF719FC6142F0
:103C40000160002010BDFCF713FC09210160002079
:103C500010BD0000380200102DE9F0470E4684B078
:103C600081467549FCF7F0FE754D744C6F1E20B30C
:103C700074494846FCF7E8FE00282ED072494846B1
:103C8000FCF7E2FE002838D0704C2068002804BF02
:103C9000201D2060251DA84204D05D226C496D487E
:103CA00000F046FE21686C4F002400BF57F8240046
:103CB00098B3641C102CF9D332E0206848B92A4626
:103CC0003946664801F03AF94FF41651634801F05D
:103CD00053F804B00020BDE8F087206848B92A46B0
:103CE00039465E4801F02AF94FF416515B4801F05D
:103CF00043F804B00120BDE8F087206848B92A469F
:103D00003946564801F01AF94FF41651534801F05C
:103D100033F804B00220BDE8F087FFE7102C15D37C
:103D2000FCF7A6FB1821016048480168002904BF80
:103D3000011D0160A94204D05D224549454800F0BB
:103D4000F7FD04B04FF0FF30BDE8F0874FF0FF38CB
:103D50003E4847F82480002904BF011D0160006827
:103D6000A84204D05D223A493A4800F0E1FD4FF004
:103D7000000ACDF808A099F800003A2808BFD9F841
:103D8000010010D049466846FFF748F96846FFF73A
:103D900032F91325D8B36846FFF732F90028684690
:103DA00008D0FFF71AF9029047F8240004B0E01C8D
:103DB000BDE8F087FFF702F948B316F0020F18BF0D
:103DC00002252ED016F00C0F18BF45F4007516F022
:103DD000040F18BF45F4806506466846FFF71CF9D6
:103DE000024630682B4602A9D0F808C03046E047AA
:103DF000002808BF0298D7D00546FCF739FB694276
:103E0000016047F824A004B04046BDE8F087FFE712
:103E1000FCF72EFB056047F824A004B04046BDE83F
:103E2000F08716F0040F18BF0125CBD116F0080F4C
:103E300014BF09250025C5E7806C0000D8000010DC
:103E400003C00920876C00008F6C0000D0000010B8
:103E5000147000000070000038020010E000001034
:103E600010B50022032806DAFCF702FB1D210160D1
:103E70004FF0FF3010BD0D4B03EB800050F80C0CE1
:103E800060B103681B699847040058BF10BDFCF778
:103E9000EFFA614201604FF0FF3010BDFCF7E8FA25
:103EA000092101604FF0FF3010BD00003802001002
:103EB00070B515460E46032818DA1948006848B947
:103EC000184A1948511E01F039F84FF41651164896
:103ED00000F052FF0024002D06D9315D124801F098
:103EE00069F9641CA542F8D82C460FE00F4901EB94
:103EF000800050F80C0C58B10168CB6831469847E7
:103F0000040003D5FCF7B4FA61420160281B70BDC0
:103F1000FCF7AEFA092101604FF0FF3070BD0000E0
:103F2000D800001003C00920E00000103802001083
:103F30002DE9F04104464FF00E4000EB4400B0F193
:103F4000506F204655D84FF0FC41B1EB440F1CD2C6
:103F500024F000404FF07E5102F0C9FC4FF0FF31D9
:103F600002F003FE054601F03CFB14F0004F1DBFBC
:103F70002F4F304E80F000402F4F08BF2F4E4FF094
:103F8000404102F0B7FB044605E000273E460146EB
:103F900002F0B0FB05462A49284602F0ABFB29494E
:103FA00002F0F6F9294602F0A5FB274902F0F0F9E4
:103FB000294602F09FFB254902F0EAF9294602F062
:103FC00099FB234902F0E4F980462946204602F095
:103FD00091FB414602F08EFB05463146204602F039
:103FE000D7F9294602F0D4F93946BDE8F04102F08C
:103FF000CFB94FF0E441B1EB440F08D9FFF780FD92
:10400000042808BFFFF796FD2046BDE8F0814FF079
:104010007F41B1EB440F03D2BDE8F041FFF783BD10
:104020000120FCF7A8FDBDE8F041FFF77FBD0000CF
:104030000000C9BF22AAFDB90000C93F22AAFD396C
:1040400024FE1C3DC78AD83C1E67383D1B93993D12
:10405000AFAA2A3E70B5EFF31080012121EA0000DB
:1040600080F0010572B60D4C6068002808BF25700D
:104070006068B0F1FF3F04D1432209A118A000F00D
:1040800057FC606828B125B9472205A11EA000F0A1
:104090004FFC6068401C606070BD000010010010A3
:1040A000433A5C6D6A5C776F726B73706163655CD9
:1040B000626D5F777261705C313636355C6D62655A
:1040C000642D6F735C706C6174666F726D5C6D6291
:1040D00065645F637269746963616C2E63000000DC
:1040E000696E746572727570745F656E61626C651D
:1040F0005F636F756E746572203C2055494E543372
:10410000325F4D4158000000696E746572727570BF
:1041100074735F64697361626C65640010B50E4C02
:104120006068002808BF10BDEFF31080012121EA6C
:10413000000090F0010F04D1582208A117A000F050
:10414000F7FB6068401E60606068002806BF20784A
:10415000002810BD62B610BD10010010433A5C6D1E
:104160006A5C776F726B73706163655C626D5F77B9
:104170007261705C313636355C6D6265642D6F73CB
:104180005C706C6174666F726D5C6D6265645F63B8
:104190007269746963616C2E63000000696E7465F6
:1041A0007272757074735F64697361626C656400C8
:1041B0000FB4084810B5017800291CBF10BC5DF889
:1041C00014FB0121017003A9029800F065FC012095
:1041D00000F002F80C01001004460848FCF7E3FA6E
:1041E0000748FCF7E0FA00F081FC002818BF00F057
:1041F000BDFD002C18BF00F0C5FBFEE7C803001092
:104200001C0400102DE9F041C1F30A52A2F2FF365E
:104210002F4A304B0D460446142E2FDA002E12DAA8
:1042200001F0E8FB0022134601F05AFF4CD2002DAA
:10423000A4BF0024254647DA25F00040204318BFDC
:10424000254D41D018E0DFF894C02CFA06F705EAB6
:10425000070C5CEA040C08BFBDE8F08101F0CAFB62
:104260000022134601F03CFF2ED2002D03DA4FF45A
:104270008010F0400544BD43002425E0332EC8BF24
:10428000BDE8F081A6F1140C4FF0FF3727FA0CF7C8
:104290003C4208BFBDE8F08101F058FF0022134600
:1042A00001F01EFF10D2002D0DDA142E08BF6D1C78
:1042B00009D0C6F13400012101FA00F02044A042E7
:1042C00038BF6D1C0446BC4329462046BDE8F0813A
:1042D0009C7500883CE4377E0000F0BFFFFF0F00B4
:1042E0008A68002A01DCFDF79FBD521E8A604A6879
:1042F000C0B2531C4B6010707047000000487047FC
:10430000C06E000070B5044600680D46B0F1FF3F76
:1043100004D12C2209490AA000F00AFB45B1012D65
:1043200018BF70BDA068016862681143016070BD6C
:10433000A068016862689143F8E700005C700000C3
:104340006F626A2D3E70696E20213D202850696E93
:104350004E616D65294E430070B50C4605460160FF
:10436000B1F1FF3F08BF70BD0021204600F0C2FB45
:1043700004F01F00012101FA00F0686024F01F0022
:1043800000F11801E960091D296108396961A86017
:1043900070BD70B5032605460C46FFF7DDFFB4F18E
:1043A000FF3F08BF70BD00212846FFF7ABFF314635
:1043B0002846BDE8704000F059B8000070B50D46C1
:1043C00004460226FFF7C8FFB5F1FF3F08BF70BDE6
:1043D0002068B0F1FF3F04D124220849084800F0CA
:1043E000A7FA21696068086001212046FFF78AFF6B
:1043F00031462046BDE8704000F038B80471000036
:10440000544400002DE9F04104460E4602271546AB
:10441000FFF7A2FFB6F1FF3F08BFBDE8F0812068BB
:10442000B0F1FF3F04D1242209490AA000F080FA2C
:104430006068002D14BFE1682169086001212046F1
:10444000FFF760FF39462046BDE8F04100F00EB8A6
:10445000047100006F626A2D3E70696E20213D205C
:104460002850696E4E616D65294E4300006800F06A
:104470006FBB0000054A126892084900B2FBF1F1D7
:10448000026851610068016170470000E800001097
:104490002DE9F0410E46044615462849304600F005
:1044A000CFFB07462649284600F0CAFB014638469E
:1044B00000F0A8FB2060B0F1FF3F04D16322214946
:1044C00021A000F035FA2068A0F180412348B1F521
:1044D000E03110D0B1F5802F04BFD0F8C41041F402
:1044E00000210FD0B1F5042F04BFD0F8C41041F063
:1044F000806107D008E0D0F8C41041F08001C0F816
:10450000C41001E0C0F8C4101548164900688008BE
:10451000B0FBF1F0216848612168086121683C2006
:1045200088612168402008600449304600F0B6FBED
:104530002846BDE8F041024900F0B0BBE86B00003E
:10454000246C0000B070000028696E74296F626AE4
:104550002D3E69326320213D204E430000C00F40B4
:10456000E8000010400D03002DE9F05F1F460368CE
:10457000DDF828B0D3F800C04FF034041CF0080F69
:104580004FF020069C6104684FF0240323604FF035
:1045900008031CBFD0F800C0CCF81830D0F800C019
:1045A000DCF80040DFF8348114F0080F04BF012468
:1045B000454608D102E0641CAC4204DCDCF8009003
:1045C00019F0080FF7D0DCF80440CCF81860102C74
:1045D00018BF082C05D000F083F86FF00100BDE88B
:1045E000F09FD0F800C041F00101CCF8081001683C
:1045F0008B61D0F800C0DCF8001011F0080F08BF84
:1046000001210AD104E000BF01F10101414504DCB0
:10461000DCF8004014F0080FF6D0DCF80410402954
:1046200005D000F05DF84FF0FF30BDE8F09F0025A9
:10463000A7F1010A4FF00409BAF1000F26DD016865
:10464000C1F8009001688B610168D1F800C01CF0CE
:10465000080F04BF0124C44607D102E0641C64456E
:1046600003DC0E6816F0080FF8D0D1F808C04968CE
:104670000CF0FF0C502904D000F032F82846BDE8B9
:10468000F09F02F805C06D1C5545D8DB0168C1F8E4
:10469000189001688B6101680B6813F0080F08BF60
:1046A000012308D102E05B1C434504DCD1F800C0C3
:1046B0001CF0080FF7D08B684968DBB2582904D08A
:1046C00000F00EF8781EBDE8F09F5355BBF1000FC7
:1046D00018BF00F005F83846BDE8F09FA08601003D
:1046E0000268102111600268082191610268106857
:1046F00010F0100F1CBF0120064909D004E0401C37
:10470000884201DD01207047136813F0100FF6D1C5
:1047100000207047A08601002DE9F047D0F800C0C6
:104720001E46DDF82080DCF800304FF0340413F032
:10473000080F4FF02005CCF8184004684FF0240C07
:10474000C4F800C04FF008071CBF03689F61D0F891
:1047500000C0DCF8003013F0080F384B04BF012410
:10476000994608D102E0641C4C4504DCDCF800A04A
:104770001AF0080FF7D0DCF80440CCF81850102CD1
:1047800018BF082C05D0FFF7ABFF6FF00100BDE8A4
:10479000F087D0F800C001F0FE01CCF808100168E5
:1047A0008F61D0F800C0DCF8001011F0080F08BFCE
:1047B00001210AD104E000BF01F10101994204DCAA
:1047C000DCF8004014F0080FF6D0DCF804101829CB
:1047D00005D0FFF785FF4FF0FF30BDE8F0870024DC
:1047E000002E22DDD0F800C0115DCCF80810016861
:1047F0008F610568296811F0080F04BF01219C46EC
:1048000008D102E0491C614504DCD5F8009019F09C
:10481000080FF7D06968282904D0FFF761FF204608
:10482000BDE8F087641CB442DCDBB8F1000F18BFB0
:10483000FFF756FF3046BDE8F0870000A086010074
:1048400030B597B034A0FBF787FE364800780728CC
:104850005ED2DFE800F00422405456585A001D2171
:104860000CA8FEF730FE002101A8FFF79BF801A875
:10487000FEF7B5FF10E00CA8FEF75CFC0CA8FEF7F5
:1048800027FC054601F0BAFE0446214601A8FEF7C2
:10489000C4FF254801F002F8EDE71D210CA8FEF742
:1048A00012FE012101A8FFF77DF801A8FEF797FF8E
:1048B00010E00CA8FEF73EFC0CA8FEF709FC05462C
:1048C00001F09CFE0446214601A8FEF7A6FF16480B
:1048D00000F0E4FFEDE716A8FEF7EAFE01210BA8C1
:1048E000FFF760F80BA8FEF77AFF07E016A8FEF7BF
:1048F00071FE044621460DA0FBF72EFEF6E7FEF7FB
:10490000F6F8FEF702F9FEF70FF9FEF705F800BF1B
:1049100000BF002017B030BD2D2D2D2D2D2D2D2D9C
:104920000A000000F00000109A99993E25640A00E0
:1049300070B514460D460646FFF78CFB23462A4603
:10494000314603A000F07CF8BDE8704000F01AB8D2
:104950006D626564206173736572746174696F6EF2
:10496000206661696C65643A2025732C2066696C49
:10497000653A2025732C206C696E65202564200A19
:104980000000000086B0FFF765FB25496846FFF789
:1049900015FD00240098B0F1FF3F04D124222149E5
:1049A00021A0FFF7C5FF039901980860962000F049
:1049B0008BFF0098B0F1FF3F04D1242219491AA0BF
:1049C000FFF7B6FF049901980860962000F07CFF7D
:1049D000641C042CDEDB00240098B0F1FF3F04D1FE
:1049E0002422104910A0FFF7A3FF03990198086043
:1049F0004FF4C87000F068FF0098B0F1FF3F04D199
:104A00002422084908A0FFF793FF04990198086041
:104A10004FF4C87000F058FF641C042CDCDBB8E7CE
:104A200032C00920047100006F626A2D3E70696E09
:104A300020213D202850696E4E616D65294E43004E
:104A40000FB470B5A0B025AC249DFFF703FB23463F
:104A50002A4680216846FBF765FD051E10DD0B48E0
:104A6000006820B90A4A0B48511E00F067FA00247A
:104A70006E460848315D00F09DFB641CAC42F8DBDB
:104A8000FFF74CFB20B070BC5DF814FBD8000010A1
:104A900003C00920E000001070B5A0B00C46054628
:104AA000FFF7D8FA23462A4680216846FBF73AFDED
:104AB000051E10DD0A48006820B90A4A0A48511E3E
:104AC00000F03CFA00246E460748315D00F072FBAE
:104AD000641CAC42F8DBFFF721FB20B070BD000086
:104AE000D800001003C00920E000001000F036B923
:104AF0007047704770B50D460446B0F1FF3F04D1D2
:104B000015220D490DA0FFF713FFA4F10050A0F5E9
:104B10001C2001090007C20E880000F1804000F54A
:104B2000303001680323934099430160016805FA1E
:104B300002F21143016070BD6C71000070696E205B
:104B4000213D202850696E4E616D65294E4300005D
:104B500070B50C460546B0F1FF3F04D120221A493A
:104B60001AA0FFF7E5FEA5F10050A0F51C204209B0
:104B7000920002F1804202F5303200F01F03D2F8B9
:104B800068C0C4F3800101FA03F32CEA030CC2F8F5
:104B900068C0D2F868C04CEA03039366002918BFC6
:104BA00070BD02090007C10E900000F1804000F5C1
:104BB0003030026C03238B409A430264026C04FA87
:104BC00001F11143016470BD6C71000070696E20C9
:104BD000213D202850696E4E616D65294E430000CD
:104BE0000A68B2F1FF3F09D00A68824201D14868E1
:104BF000704751F80C2FB2F1FF3FF5D14FF0FF3065
:104C000070470000884208BF7047B0F1FF3F04BF03
:104C10000846704710B5B1F1FF3F08BF10BD03A0B3
:104C2000FFF7C6FA4FF0FF3010BD000070696E6DDF
:104C30006170206D69732D6D617463680000000000
:104C400010B5B0F1FF3F08BF10BD0A68B2F1FF3FD9
:104C50000CD00A68824204D14C68B4F1FF3F0AD1FB
:104C600006E051F80C2FB2F1FF3FF2D14FF0FF34C4
:104C700002A0FFF79DFA204610BD000070696E6D1E
:104C80006170206E6F7420666F756E6420666F723F
:104C9000207065726970686572616C0010B50446B9
:104CA000B0F1FF3F08BF10BD0868B0F1FF3F11D061
:104CB0000868A04209D189682046FFF71BFF2046FB
:104CC000BDE810400221FFF743BF51F80C0FB0F1CF
:104CD000FF3FEDD1BDE8104001A0FFF769BA000029
:104CE000636F756C64206E6F742070696E6F75747D
:104CF0000000000070B5054600F032FD6C684FF012
:104D0000E040626882B1D4E9023CD2E900125E1A46
:104D10007CEB02061CD2C91A62EB0C02B1F1E04333
:104D200072F1000238BF0846D4E902120C18286854
:104D300042F10006016920468847284600F010FD30
:104D40006868D0E90212081B72EB060038BF70BD1C
:104D500028684069BDE870400047000002480068CC
:104D600000F0010070470000F0ED00E084B06946FB
:104D70001820ABBE04B070472DE9F05F0D46064623
:104D800000686349884204DD9B22624962A0FFF704
:104D9000CFFD3068A0F180416648B1F5404109D0AF
:104DA000B1F5804F11D0B1F50C2F1BD0B1F5102FFC
:104DB00023D02EE0D0F8A81121F0C001C0F8A8112E
:104DC000D0F8A81141F0400109E0D0F8A81121F471
:104DD0004071C0F8A811D0F8A81141F48071C0F852
:104DE000A81116E0D0F8AC1121F44031C0F8AC1194
:104DF000D0F8AC1141F4803109E0D0F8AC1121F4C5
:104E00004021C0F8AC11D0F8AC1141F48021C0F8B9
:104E1000AC1149482A014FF0000900684FF0010821
:104E2000B0FBF2F1B0FBF2F302FB13028FB2494682
:104E3000002A57D001222C464FF0000C924603E086
:104E40004FF0000C002A47D902FB00FB4FF0004353
:104E500013EA4B0F0AD053000CEB020B43430BFB3E
:104E600005FBB3FBFBF30AEB131309E093000CEB18
:104E7000020B43430BFB05FBB3FBFBF30AEB5313A2
:104E8000C3F34F03002B08BF0123BCF1000F18BF71
:104E9000022B38BF022300FB02FB0CEB020E0EFBC1
:104EA00003FE4FEACE0EBBFBFEFB0BF1010BD5EB75
:104EB0005B0B48BFCBF1000BA34507DA5C461F46EE
:104EC0009046E146AB4508BF012105D00CF1010336
:104ED00003F0FF0C9445B7D3521CD2B2102A01D272
:104EE0000029ADD03068017B41F080010173316849
:104EF000380A087130680770316849EA081081F88B
:104F000028003068017B21F080010173BDE8F09F2B
:104F100000C00940BC71000028696E74296F626A84
:104F20002D3E75617274203C3D20554152545F33D3
:104F30000000000000C00F40E80000102DE9F0471D
:104F400088460446174653494046FFF779FE054612
:104F500051493846FFF774FE01462846FFF752FED6
:104F60000546B0F1FF3F04D15C224C494CA0FFF74D
:104F7000DFFCA5F180414E482560B1F5404104BFFA
:104F8000D0F8C41041F0080117D0B1F5804F04BF2C
:104F9000D0F8C41041F010010FD0B1F50C2F04BFB0
:104FA000D0F8C41041F0807107D0B1F5102F04BFC4
:104FB000D0F8C41041F0007101D1C0F8C4102068CD
:104FC0000126067220684FF00009C0F804904FF4E3
:104FD00016512046FFF7D0FE00200323014602466B
:104FE00043EA800040EAC100216840EA02100873E9
:104FF00028494046FFF752FE27493846FFF74EFE44
:10500000B8F1FF3F03D000214046FFF7A1FDB7F103
:10501000FF3F03D000213846FFF79AFDA5F18040FD
:10502000B0F5404008BFC4F804900FD0B0F5804FF1
:1050300008BF66600AD0B0F50C2F08BF022004D06C
:10504000B0F5102F08BF032000D1606061684FF0F9
:10505000FF30C1EBC1021749034601EBC2025060A9
:105060006268C2EBC20201EBC2010246C8610021C4
:10507000204600F0D3F8A5F18040B0F5404018BFBD
:10508000BDE8F0870C480660D4E90012C0E90212BE
:10509000BDE8F087986C0000046D0000BC71000052
:1050A00028696E74297561727420213D204E430079
:1050B00000C00F4078020010D800001070B40468DF
:1050C0000023A4F180459C46B5F5404504BF052367
:1050D000DFF8C8C013D0B5F5804F04BF0623DFF852
:1050E000C0C00CD0B5F50C2F04BF0723DFF8B4C047
:1050F00005D0B5F5102F04BF0823DFF8ACC001259B
:1051000005FA01F6B2B16068304360602748006874
:10511000002B00EB8300C0F840C0BCBF70BC7047E0
:1051200005FA03F05909890001F1E021C1F80001F5
:1051300070BC7047012912D04268C2EBC20C1C4AF5
:1051400002EBCC0292F836C092F835201CEB020F2D
:105150001CBF70BC7047002908BF012100D000218E
:105160006268B24362600068406805FA01F1084273
:105170001CBF70BC7047002BBCBF70BC704705FAE9
:1051800003F05909890001F1E021C1F88001BFF362
:105190004F8FBFF36F8F70BC70470000A95600009F
:1051A000BD560000D1560000E556000008ED00E0B5
:1051B0007802001070B44268174CC2EBC20204EBD4
:1051C000C2020025D2F81CC0BCF1FF3F0AD0166B0A
:1051D0003668136A1E42F7D103681B7D13F0400F37
:1051E000F2D00BE003681B7D13F0200F02D082F891
:1051F000345003E092F83430102BE5D2026811707D
:105200004068C0EBC00004EBC00090F83410491CAB
:1052100080F8341070BC7047780200102DE9F84F08
:1052200004460E46D4E90010DFF8ECB099469246E9
:10523000594518BF002506D19BF810105D4621F096
:10524000C0018BF81010DFF8D480C0EBC00008EB71
:10525000C0074FF0FF31F961796061680022C1EB4E
:10526000C10108EBC101204681F835201146FFF746
:1052700025FF002E08BFBDE8F88F29495046FFF7EB
:10528000AFFC009027494846FFF7AAFC022E18BF42
:10529000032E13D1B9F1FF3F10D0584509D145B1C4
:1052A000287C40F0800028741E494846FFF7F6FC31
:1052B00004E007F11C004946FFF76BF8012E1CBF04
:1052C000032EBDE8F88FBAF1FF3F08BFBDE8F88FA5
:1052D000072021680872009858450AD14DB1287CF2
:1052E00040F0400028745046BDE8F84F0C49FFF7E5
:1052F000D5BC381D00225146FFF784F861680122B1
:10530000C1EBC10108EBC101204681F83520BDE8A1
:10531000F84F0021FFF7D2BE0000014078020010D4
:10532000706D0000946D00002DE9F04104460068A6
:105330000E461F464168154621F002014160301FAC
:105340000D2838BF042D04D35922174917A0FFF7A1
:10535000EFFAC5F34002701E05F00101002A14BFE8
:1053600001230023002914BF012200222168D1F863
:1053700000C040EA83102CF0FF0C40EAC21040EA63
:105380000C00086020684168002F21F00D0114BF57
:105390000122002241EA820141602068416841F017
:1053A00002014160BDE8F0811072000028286269A6
:1053B0007473203E3D2034292026262028626974FB
:1053C00073203C3D203136292920262620286D6F68
:1053D0006465203E3D2030202626206D6F646520C8
:1053E0003C3D2033290000002DE9F04104460068CF
:1053F000426822F0020242602068A0F180422C48FC
:10540000B2F540320FD0B2F5B02F18D1D0F8AC21A0
:1054100022F44062C0F8AC21D0F8AC2142F48062A2
:10542000C0F8AC210BE0D0F8A82122F44012C0F85B
:10543000A821D0F8A82142F48012C0F8A8211D4864
:1054400002250668084601F0F5F80746B6FBF5F0B8
:1054500001F0F0F8394601F00FF84FF07C5100F000
:1054600097FF00F069FFFEF7CDFE00F0CFFCB0F52E
:10547000807F15DA21680D6121680A6822F47F4275
:105480000A6021680A686FF0FF0303EB00201043F5
:1054900008602068416841F002014160BDE8F08188
:1054A000AD1CFE2DD2DDBDE8F04103A0FEF780BEAD
:1054B00000C00F40E8000010436F756C646E2774E5
:1054C0002073657475702072657175657374656499
:1054D00020535049206672657175656E63790000CE
:1054E0002DE9F84F884604461E4617462B4940468C
:1054F0000A9DFFF7A5FB009029493846FFF7A0FB5E
:10550000824628493046FFF79BFB834626492846BA
:10551000FFF796FB814651460098FFF773FB8246E2
:1055200049465846FFF76EFB01465046FFF76AFBB7
:105530002060B0F1FF3F04D144221C491CA0FFF7BA
:10554000F7F92068A0F180411E48B1F5403104BF51
:10555000D0F8C41041F4806107D0B1F5B02F04BF7A
:10556000D0F8C41041F4001101D1C0F8C4100B49A7
:105570004046FFF793FB0A493846FFF78FFB09497E
:105580003046FFF78BFBB5F1FF3F08BFBDE8F88F52
:1055900005492846BDE8F84FFFF780BBF46D0000D1
:1055A000306E0000B86D00006C6E000010720000DC
:1055B00028696E74296F626A2D3E73706920213DDF
:1055C000204E430000C00F400268D36813F0020F62
:1055D000FBD091600068C16811F0040FFBD08068B7
:1055E000704770B5054601F08DF9044620F0004083
:1055F000C0F1FF40C00F08D025F00040C0F1FF40CF
:10560000C00F04BF0120FBF7B6FA204670BD70B58D
:1056100005460068C06880476868416801B3D0E902
:105620000264286840688047B0422CBF00210121F5
:1056300011B1001C44F101046968C1E90204696800
:105640004A68D2E9003CC01A74EB0C0008D3D06859
:1056500048606868016800291CBF90688847DBE7DC
:105660002846BDE87040FFF745BB10B504464068CA
:10567000007C98B920680068804761680020086055
:105680006168486062680121C2E9020060680174D3
:10569000204600F065F82046FFF72CFB204600F07E
:1056A0005FF86068806810BD034A90680021C0F30D
:1056B000420000F021B8000000C00040034A90689A
:1056C0000121C0F3420000F017B8000000000140C3
:1056D000034A90680221C0F3420000F00DB80000B8
:1056E00000800940034A90680321C0F3420000F0A3
:1056F00003B8000000C0094030B4DFF85CC0C1EB63
:10570000C1040CEBC403012808BF012112D00228F8
:105710001CBF30BC704700215868B0F1FF3F09D072
:1057200018699D68056093F8360018B9506820F034
:10573000010050605CF83400002804BF30BC7047A2
:10574000002901BF93F83620002A30BC7047034A75
:10575000526830BC1047000078020010D8000010DA
:1057600070B505464068D0E9026428684068804703
:10577000B04234BF0121002111B1001C44F10104E9
:105780006968C1E9020470BD0149012008607047E1
:10579000004009400248416921F001014161704720
:1057A000004009404FF0E0211020C1F8000270478E
:1057B00012480168002918BF704701210160104894
:1057C00050F8C42F42F4000202600E480022026723
:1057D0000D4A12689208022343600C4BB2FBF3F2AD
:1057E000521EC26041600B480949006801654FF0D4
:1057F000E0211020C1F8000170470000EC0000100B
:1058000000C00F4000400940E800001040420F0077
:105810001958000008ED00E00148FFF7F8BE00004D
:10582000C06E0000114912480A68EAB901220A60F4
:10583000104951F8C43F43F400030B600021016795
:105840000D4909688908022343600C4BB1FBF3F151
:10585000491EC16042600B49094A09680A654FF058
:10586000E0221021C2F8001180687047EC0000109F
:105870000040094000C00F40E800001040420F0007
:105880001958000008ED00E003498861486940F0BC
:1058900001004861704700000040094070B50949A7
:1058A00000F028FF00F0AAFE0446FEF727FD06469A
:1058B000FFF7DBFE05463046FFF7D7FE401BA04250
:1058C000F9D370BD0024744970B54FF47A7100FBB0
:1058D00001F5FEF713FD0646FFF7C7FE0446304606
:1058E000FFF7C3FE001BA842F9D370BD70B5054693
:1058F000FEF704FD0646FFF7B8FE04463046FFF704
:10590000B4FE001BA842F9D370BD000010B50029F9
:105910000AD00878002807D005487844FBF794F8A7
:10592000002801D0002010BD0248784410BD0000BE
:105930006A1900006219000010B500290AD0087821
:10594000002807D005487844FBF77EF8002801D0EE
:10595000002010BD0248784410BD00005A19000014
:105960005219000010B504460068002806BF201D2B
:1059700020602068211D884204D05D22024903482E
:10598000FEF7D6FF206810BD147000000070000004
:1059900021F00042A2F16052B2F5801F01F00043F5
:1059A00028BFD2F17F6C0BD95FEA001C43EAC20228
:1059B00042EB507018BF704728BF20F001007047BD
:1059C000B2F5801FBCBF184670474FEA410C1CF56A
:1059D000001F02D2084600F054BF70B500F02CFB47
:1059E00000000089FFF7F6BF4FF00040A0F58000EF
:1059F0007047000010B591EA030F48BF83F00043E1
:105A000000F1B883841A71EB030C05D2121943EB31
:105A10000C03001B61EB0C01DFF824E14FEA115489
:105A2000A4EB135C1EEA430F18BF9EEA445F73D0D9
:105A300023EA0E03DCF1200E21EA045143F4801323
:105A400032D322FA0CFE10EB0E0023FA0CFE41EBCF
:105A50000E01CCF1200E03FA0EFE10EB0E0051F1F8
:105A60000001B1F5801FCCF1200E32D201EB0451C0
:105A700012FA0EF2BDE8104058BF7047401C38BF04
:105A80005FEA420218BF7047002814BF20F00100EF
:105A900041F100014FEA410313F5001F38BF704781
:105AA000A1F1C04100F016BB012A43EB0302ACF1A7
:105AB000200CDCF11F0E32BF4FF0000E23FA0CF366
:105AC00010EB030041EB0451B4EB115FD0D0A1EB1C
:105AD000045101F5801149085FEA300001EB0451DF
:105AE0000ED350F1000038BF12FA0EFE08D1BDE807
:105AF0001040C9E7401C38BF5FEA4202CAD1C3E781
:105B0000BDE810404FEA410313F5001F38BF70474E
:105B1000A1F1C04100F0DEBA9EEA445F08D011EA6C
:105B20005E0FBDE8104004BF01F000410020704747
:105B3000BDE8104070B500F07FFA00BF64FBBE3EC8
:105B40000000E0FF491058BFC1F140415B1058BF51
:105B5000C3F140438B42EFF3008070472DE9C04111
:105B600030B4DFF8A0C23CEA111418BF3CEA1314A9
:105B700000F0EC8081EA03051CEA111444EAD574B4
:105B800018BF1CEA131500F0C780A4EB05044FF002
:105B9000004545EAC12145EAC32341EA505143EAA1
:105BA000525304F17F74994204F500344FEAC02047
:105BB0004FEAC22208BF904200F09C804FEA136572
:105BC0000FF24016765D4FEA134506FB05F7C7F165
:105BD000807706FB07F74FEAD737A7FB03687642C3
:105BE000C8F58038A7FB06CE38BFA8F1010807FB2F
:105BF00008E64FF0000EA6FB028CE6FB03CEDCF1BC
:105C0000000CCEF1004E38BFAEF1010EA6FB0C58D1
:105C10004FF000074FF00005E6FB0E87A1FB08C61A
:105C2000A0FB07CE16EB0E0645F10005E1FB07656C
:105C300015F1E04E7EBFA4F580345FEA46066D4163
:105C400016F1800745F100054FEA17274FEA06666F
:105C500047EA0567A6F1DE46B6F1805F4FEA1525F3
:105C60001FD9384624F0010C05EBC471BCF1FE6F5E
:105C700001EB0C1102D8F0BCBDE8008124425CBFEE
:105C800001F5801E9EEAC47F02D4F0BCBDE800810D
:105C9000244238D4F0BCA1F1C041BDE8004100F07D
:105CA00019BA4FEAD22242EA43524FEAD323A7FB62
:105CB00002864FEAD02040EA415007FB03661EEA05
